{
  "contractName": "P2PC",
  "abi": [
    {
      "constant": false,
      "inputs": [
        {
          "internalType": "address",
          "name": "id",
          "type": "address"
        }
      ],
      "name": "addProsumer",
      "outputs": [],
      "payable": false,
      "stateMutability": "nonpayable",
      "type": "function"
    },
    {
      "constant": false,
      "inputs": [
        {
          "internalType": "address",
          "name": "id",
          "type": "address"
        },
        {
          "internalType": "int256",
          "name": "amount",
          "type": "int256"
        }
      ],
      "name": "updateStatus",
      "outputs": [],
      "payable": false,
      "stateMutability": "nonpayable",
      "type": "function"
    },
    {
      "constant": false,
      "inputs": [
        {
          "internalType": "address",
          "name": "id",
          "type": "address"
        },
        {
          "internalType": "int256",
          "name": "amount",
          "type": "int256"
        }
      ],
      "name": "updateBalance",
      "outputs": [],
      "payable": false,
      "stateMutability": "nonpayable",
      "type": "function"
    },
    {
      "constant": true,
      "inputs": [
        {
          "internalType": "address",
          "name": "id",
          "type": "address"
        }
      ],
      "name": "getStatus",
      "outputs": [
        {
          "internalType": "int256",
          "name": "",
          "type": "int256"
        }
      ],
      "payable": false,
      "stateMutability": "view",
      "type": "function"
    },
    {
      "constant": true,
      "inputs": [
        {
          "internalType": "address",
          "name": "id",
          "type": "address"
        }
      ],
      "name": "getBalance",
      "outputs": [
        {
          "internalType": "int256",
          "name": "",
          "type": "int256"
        }
      ],
      "payable": false,
      "stateMutability": "view",
      "type": "function"
    },
    {
      "constant": true,
      "inputs": [
        {
          "internalType": "address",
          "name": "id",
          "type": "address"
        }
      ],
      "name": "isRegistered",
      "outputs": [
        {
          "internalType": "bool",
          "name": "",
          "type": "bool"
        }
      ],
      "payable": false,
      "stateMutability": "view",
      "type": "function"
    }
  ],
  "bytecode": "0x608060405234801561001057600080fd5b50610cd2806100206000396000f3fe608060405234801561001057600080fd5b50600436106100625760003560e01c806328138ad61461006757806330ccebb5146100b5578063507361901461010d578063c0bda42b14610151578063c3c5a5471461019f578063f8b2cb4f146101fb575b600080fd5b6100b36004803603604081101561007d57600080fd5b81019080803573ffffffffffffffffffffffffffffffffffffffff16906020019092919080359060200190929190505050610253565b005b6100f7600480360360208110156100cb57600080fd5b81019080803573ffffffffffffffffffffffffffffffffffffffff1690602001909291905050506102a6565b6040518082815260200191505060405180910390f35b61014f6004803603602081101561012357600080fd5b81019080803573ffffffffffffffffffffffffffffffffffffffff1690602001909291905050506102f1565b005b61019d6004803603604081101561016757600080fd5b81019080803573ffffffffffffffffffffffffffffffffffffffff16906020019092919080359060200190929190505050610374565b005b6101e1600480360360208110156101b557600080fd5b81019080803573ffffffffffffffffffffffffffffffffffffffff1690602001909291905050506103c7565b604051808215151515815260200191505060405180910390f35b61023d6004803603602081101561021157600080fd5b81019080803573ffffffffffffffffffffffffffffffffffffffff169060200190929190505050610460565b6040518082815260200191505060405180910390f35b806000808473ffffffffffffffffffffffffffffffffffffffff1673ffffffffffffffffffffffffffffffffffffffff168152602001908152602001600020600101819055506102a2826104ab565b5050565b60008060008373ffffffffffffffffffffffffffffffffffffffff1673ffffffffffffffffffffffffffffffffffffffff168152602001908152602001600020600101549050919050565b806000808373ffffffffffffffffffffffffffffffffffffffff1673ffffffffffffffffffffffffffffffffffffffff16815260200190815260200160002060000160006101000a81548173ffffffffffffffffffffffffffffffffffffffff021916908373ffffffffffffffffffffffffffffffffffffffff16021790555050565b806000808473ffffffffffffffffffffffffffffffffffffffff1673ffffffffffffffffffffffffffffffffffffffff168152602001908152602001600020600201600082825401925050819055505050565b60008173ffffffffffffffffffffffffffffffffffffffff166000808473ffffffffffffffffffffffffffffffffffffffff1673ffffffffffffffffffffffffffffffffffffffff16815260200190815260200160002060000160009054906101000a900473ffffffffffffffffffffffffffffffffffffffff1673ffffffffffffffffffffffffffffffffffffffff16149050919050565b60008060008373ffffffffffffffffffffffffffffffffffffffff1673ffffffffffffffffffffffffffffffffffffffff168152602001908152602001600020600201549050919050565b6104b6816001610573565b506104c2816002610573565b5060008060008373ffffffffffffffffffffffffffffffffffffffff1673ffffffffffffffffffffffffffffffffffffffff16815260200190815260200160002060010154131561051b576105168161070e565b610570565b60008060008373ffffffffffffffffffffffffffffffffffffffff1673ffffffffffffffffffffffffffffffffffffffff16815260200190815260200160002060010154121561056f5761056e8161090a565b5b5b50565b6000806000905060008090505b83805490508110156106bd578473ffffffffffffffffffffffffffffffffffffffff168482815481106105af57fe5b9060005260206000200160009054906101000a900473ffffffffffffffffffffffffffffffffffffffff1673ffffffffffffffffffffffffffffffffffffffff1614156106b0576001915060008190505b60018580549050038110156106aa5784600182018154811061061e57fe5b9060005260206000200160009054906101000a900473ffffffffffffffffffffffffffffffffffffffff1685828154811061065557fe5b9060005260206000200160006101000a81548173ffffffffffffffffffffffffffffffffffffffff021916908373ffffffffffffffffffffffffffffffffffffffff1602179055508080600101915050610600565b506106bd565b8080600101915050610580565b50801561070457828054806106ce57fe5b6001900381819060005260206000200160006101000a81549073ffffffffffffffffffffffffffffffffffffffff021916905590555b8091505092915050565b60008090505b6001805490508110801561076a575060008060008473ffffffffffffffffffffffffffffffffffffffff1673ffffffffffffffffffffffffffffffffffffffff1681526020019081526020016000206001015414155b156108555760006001828154811061077e57fe5b9060005260206000200160009054906101000a900473ffffffffffffffffffffffffffffffffffffffff16905060008060008373ffffffffffffffffffffffffffffffffffffffff1673ffffffffffffffffffffffffffffffffffffffff168152602001908152602001600020600101546000808673ffffffffffffffffffffffffffffffffffffffff1673ffffffffffffffffffffffffffffffffffffffff168152602001908152602001600020600101540112610846576108418184610ab8565b61084f565b81806001019250505b50610714565b60008060008473ffffffffffffffffffffffffffffffffffffffff1673ffffffffffffffffffffffffffffffffffffffff1681526020019081526020016000206001015413156109065760028290806001815401808255809150509060018203906000526020600020016000909192909190916101000a81548173ffffffffffffffffffffffffffffffffffffffff021916908373ffffffffffffffffffffffffffffffffffffffff160217905550505b5050565b60008090505b600280549050811015610a035760006002828154811061092c57fe5b9060005260206000200160009054906101000a900473ffffffffffffffffffffffffffffffffffffffff16905060008060008573ffffffffffffffffffffffffffffffffffffffff1673ffffffffffffffffffffffffffffffffffffffff168152602001908152602001600020600101546000808473ffffffffffffffffffffffffffffffffffffffff1673ffffffffffffffffffffffffffffffffffffffff1681526020019081526020016000206001015401126109f5576109ef8382610ab8565b50610a03565b508080600101915050610910565b5060008060008373ffffffffffffffffffffffffffffffffffffffff1673ffffffffffffffffffffffffffffffffffffffff168152602001908152602001600020600101541215610ab55760018190806001815401808255809150509060018203906000526020600020016000909192909190916101000a81548173ffffffffffffffffffffffffffffffffffffffff021916908373ffffffffffffffffffffffffffffffffffffffff160217905550505b50565b60008060008473ffffffffffffffffffffffffffffffffffffffff1673ffffffffffffffffffffffffffffffffffffffff16815260200190815260200160002060010154600003905060008060008573ffffffffffffffffffffffffffffffffffffffff1673ffffffffffffffffffffffffffffffffffffffff16815260200190815260200160002060010181905550806000808573ffffffffffffffffffffffffffffffffffffffff1673ffffffffffffffffffffffffffffffffffffffff16815260200190815260200160002060020160008282540392505081905550806000808473ffffffffffffffffffffffffffffffffffffffff1673ffffffffffffffffffffffffffffffffffffffff16815260200190815260200160002060010160008282540392505081905550806000808473ffffffffffffffffffffffffffffffffffffffff1673ffffffffffffffffffffffffffffffffffffffff16815260200190815260200160002060020160008282540192505081905550610c40836001610573565b5060008060008473ffffffffffffffffffffffffffffffffffffffff1673ffffffffffffffffffffffffffffffffffffffff168152602001908152602001600020600101541415610c9857610c96826002610573565b505b50505056fea265627a7a72315820373bbeca3f7c4ab84da0ebddff338b43eebcb9cf741fd76cdcf2530ffba4834f64736f6c63430005100032",
  "source": "pragma solidity >= 0.4.0 < 0.8.0;\r\n\r\ncontract P2PC {\r\n    struct Prosumer {\r\n        address id;\r\n        int status;\r\n        int balance;\r\n    }\r\n\r\n    mapping (address => Prosumer) private prosumers;\r\n    address[] private buyers;\r\n    address[] private sellers;\r\n\r\n    //removes a specified id from the queue\r\n    //returns true if id is present and removed from queue\r\n    //otherwise queue remains unchanged and returns false\r\n    function removeFromQueue(address id, address[] storage queue) private returns(bool) {\r\n        bool found = false;\r\n        for (uint i = 0; i < queue.length; i++) {\r\n            if (queue[i] == id) {\r\n                found = true;\r\n                for (uint j = i; j < queue.length - 1; j++) {\r\n                    queue[j] = queue[j+1];\r\n                }\r\n                break;\r\n            }\r\n        }\r\n\r\n        if (found) {\r\n            queue.pop();\r\n        }\r\n\r\n        return found;\r\n    }\r\n\r\n    function makeTrade(address buy_id, address sell_id) private {\r\n        int amount = 0 - prosumers[buy_id].status;\r\n\r\n        prosumers[buy_id].status = 0;\r\n        prosumers[buy_id].balance -= amount;\r\n        prosumers[sell_id].status -= amount;\r\n        prosumers[sell_id].balance += amount;\r\n\r\n        removeFromQueue(buy_id, buyers);\r\n        if (prosumers[sell_id].status == 0) {\r\n            removeFromQueue(sell_id, sellers);\r\n        }\r\n    }\r\n\r\n    function sellEnergy(address sell_id) private {\r\n        uint i = 0;\r\n        //while loop needed as the content of buyers queue can change during the loop\r\n        while ((i < buyers.length) && (prosumers[sell_id].status != 0)) {\r\n            address buy_id = buyers[i];\r\n            if (prosumers[sell_id].status + prosumers[buy_id].status >= 0) {\r\n                makeTrade(buy_id, sell_id);\r\n            } else {\r\n                //Only increment i if no trade is made, otherwise buy_id has been removed from the queue\r\n                i++;        \r\n            }\r\n        }\r\n\r\n        if (prosumers[sell_id].status > 0) {\r\n            sellers.push(sell_id);\r\n        }\r\n    }\r\n\r\n    function buyEnergy(address buy_id) private {\r\n        for (uint i = 0; i < sellers.length; i++) {\r\n            address sell_id = sellers[i];\r\n            if (prosumers[sell_id].status + prosumers[buy_id].status >= 0) {\r\n                makeTrade(buy_id, sell_id);\r\n                break;\r\n            }\r\n        }\r\n\r\n        if (prosumers[buy_id].status < 0) {\r\n            buyers.push(buy_id);\r\n        }\r\n    }\r\n\r\n    function processRequest(address id) private {\r\n        removeFromQueue(id, buyers);\r\n        removeFromQueue(id, sellers);\r\n\r\n        if (prosumers[id].status > 0) {\r\n            sellEnergy(id);\r\n        } else if (prosumers[id].status < 0) {\r\n            buyEnergy(id);\r\n        }\r\n    }\r\n\r\n    function addProsumer(address id) public {\r\n        prosumers[id].id = id;\r\n    }\r\n\r\n    function updateStatus(address id, int amount) public {\r\n        prosumers[id].status = amount;\r\n        \r\n        processRequest(id);\r\n    }\r\n\r\n    function updateBalance(address id, int amount) public {\r\n        prosumers[id].balance += amount;\r\n    }\r\n\r\n    function getStatus(address id) public view returns(int) {\r\n        return prosumers[id].status;\r\n    }\r\n\r\n    function getBalance(address id) public view returns(int) {\r\n        return prosumers[id].balance;\r\n    }\r\n\r\n    function isRegistered(address id) public view returns(bool) {\r\n        return prosumers[id].id == id;\r\n    }\r\n}\r\n\r\n\r\ncontract MainC {\r\n    P2PC p2p;\r\n\r\n    constructor (P2PC _p2p) public {\r\n        p2p = _p2p;\r\n    }\r\n    \r\n    modifier checkRegistered() {\r\n        require(p2p.isRegistered(msg.sender) == true, \"Not registered\");\r\n        _;\r\n    }\r\n\r\n    modifier checkNotRegistered() {\r\n        require(p2p.isRegistered(msg.sender) == false, \"Already registered\");\r\n        _;\r\n    }\r\n\r\n    modifier checkSufficientFunds(int amount) {\r\n        require(p2p.getBalance(msg.sender) + amount >= 0, \"Not enough funds\");\r\n        _;\r\n    }\r\n\r\n    modifier checkPositiveStatus() {\r\n        require(p2p.getStatus(msg.sender) >= 0, \"Withdrawal requires status >= 0\");\r\n        _;\r\n    }\r\n\r\n    function register() public checkNotRegistered {\r\n        p2p.addProsumer(msg.sender);\r\n    }\r\n\r\n    function deposit() public payable checkRegistered {\r\n        p2p.updateBalance(msg.sender, int(msg.value / 1 ether));\r\n    }\r\n\r\n    function withdraw() public checkRegistered checkPositiveStatus {\r\n        int balance = p2p.getBalance(msg.sender);\r\n        msg.sender.transfer(uint(balance * 1 ether));\r\n        p2p.updateBalance(msg.sender, 0 - balance);\r\n    }\r\n\r\n    function requestEnergy(int amount) public checkRegistered checkSufficientFunds(amount) {\r\n        p2p.updateStatus(msg.sender, amount);\r\n    }\r\n\r\n    function getStatus() public view checkRegistered returns(int) {\r\n        return p2p.getStatus(msg.sender);\r\n    }\r\n\r\n    function getBalance() public view checkRegistered returns(int) {\r\n        return p2p.getBalance(msg.sender);\r\n    }\r\n}",
  "sourcePath": "C:\\Users\\Lenovo\\Documents\\University_Work\\year_4\\BT\\cwk\\contracts\\energyTrading.sol",
  "compiler": {
    "name": "solc",
    "version": "0.5.16+commit.9c3226ce.Emscripten.clang"
  },
  "schemaVersion": "3.4.13",
  "updatedAt": "2023-05-02T18:24:58.309Z",
  "networkType": "ethereum",
  "devdoc": {
    "methods": {}
  },
  "userdoc": {
    "methods": {}
  }
}