{
  "contractName": "P2PCI",
  "abi": [
    {
      "constant": true,
      "inputs": [],
      "name": "getReserves",
      "outputs": [
        {
          "internalType": "uint256",
          "name": "_energy",
          "type": "uint256"
        },
        {
          "internalType": "uint256",
          "name": "_ethers",
          "type": "uint256"
        }
      ],
      "payable": false,
      "stateMutability": "view",
      "type": "function"
    },
    {
      "constant": true,
      "inputs": [
        {
          "internalType": "uint256",
          "name": "_energyAmount",
          "type": "uint256"
        }
      ],
      "name": "costToBuyEnergy",
      "outputs": [
        {
          "internalType": "uint256",
          "name": "_ethersAmountWithFee",
          "type": "uint256"
        }
      ],
      "payable": false,
      "stateMutability": "view",
      "type": "function"
    },
    {
      "constant": false,
      "inputs": [
        {
          "internalType": "address",
          "name": "_from",
          "type": "address"
        },
        {
          "internalType": "uint256",
          "name": "_energyAmount",
          "type": "uint256"
        }
      ],
      "name": "addLiquidity",
      "outputs": [
        {
          "internalType": "uint256",
          "name": "_newLiquidityShares",
          "type": "uint256"
        }
      ],
      "payable": false,
      "stateMutability": "nonpayable",
      "type": "function"
    },
    {
      "constant": true,
      "inputs": [
        {
          "internalType": "uint256",
          "name": "_liquidityShares",
          "type": "uint256"
        }
      ],
      "name": "getLiquidityWorth",
      "outputs": [
        {
          "internalType": "uint256",
          "name": "_energyAmount",
          "type": "uint256"
        },
        {
          "internalType": "uint256",
          "name": "_ethersAmount",
          "type": "uint256"
        }
      ],
      "payable": false,
      "stateMutability": "view",
      "type": "function"
    },
    {
      "constant": false,
      "inputs": [
        {
          "internalType": "address",
          "name": "_to",
          "type": "address"
        },
        {
          "internalType": "uint256",
          "name": "_liquidityShares",
          "type": "uint256"
        }
      ],
      "name": "removeLiquidity",
      "outputs": [
        {
          "internalType": "uint256",
          "name": "_energyAmount",
          "type": "uint256"
        },
        {
          "internalType": "uint256",
          "name": "_ethersAmount",
          "type": "uint256"
        }
      ],
      "payable": false,
      "stateMutability": "nonpayable",
      "type": "function"
    },
    {
      "constant": false,
      "inputs": [
        {
          "internalType": "address",
          "name": "_id",
          "type": "address"
        }
      ],
      "name": "addProsumer",
      "outputs": [],
      "payable": false,
      "stateMutability": "nonpayable",
      "type": "function"
    },
    {
      "constant": false,
      "inputs": [
        {
          "internalType": "address",
          "name": "_id",
          "type": "address"
        },
        {
          "internalType": "int256",
          "name": "_amount",
          "type": "int256"
        }
      ],
      "name": "updateStatus",
      "outputs": [],
      "payable": false,
      "stateMutability": "nonpayable",
      "type": "function"
    },
    {
      "constant": false,
      "inputs": [
        {
          "internalType": "address",
          "name": "_id",
          "type": "address"
        },
        {
          "internalType": "uint256",
          "name": "_amount",
          "type": "uint256"
        }
      ],
      "name": "updateBalance",
      "outputs": [],
      "payable": false,
      "stateMutability": "nonpayable",
      "type": "function"
    },
    {
      "constant": false,
      "inputs": [
        {
          "internalType": "address",
          "name": "_id",
          "type": "address"
        },
        {
          "internalType": "uint256",
          "name": "_amount",
          "type": "uint256"
        }
      ],
      "name": "addBalance",
      "outputs": [],
      "payable": false,
      "stateMutability": "nonpayable",
      "type": "function"
    },
    {
      "constant": false,
      "inputs": [
        {
          "internalType": "address",
          "name": "_id",
          "type": "address"
        },
        {
          "internalType": "uint256",
          "name": "_amount",
          "type": "uint256"
        }
      ],
      "name": "removeBalance",
      "outputs": [],
      "payable": false,
      "stateMutability": "nonpayable",
      "type": "function"
    },
    {
      "constant": true,
      "inputs": [
        {
          "internalType": "address",
          "name": "_id",
          "type": "address"
        }
      ],
      "name": "getStatus",
      "outputs": [
        {
          "internalType": "int256",
          "name": "",
          "type": "int256"
        }
      ],
      "payable": false,
      "stateMutability": "view",
      "type": "function"
    },
    {
      "constant": true,
      "inputs": [
        {
          "internalType": "address",
          "name": "_id",
          "type": "address"
        }
      ],
      "name": "getBalance",
      "outputs": [
        {
          "internalType": "uint256",
          "name": "",
          "type": "uint256"
        }
      ],
      "payable": false,
      "stateMutability": "view",
      "type": "function"
    },
    {
      "constant": true,
      "inputs": [
        {
          "internalType": "address",
          "name": "_id",
          "type": "address"
        }
      ],
      "name": "getLiquidityShares",
      "outputs": [
        {
          "internalType": "uint256",
          "name": "",
          "type": "uint256"
        }
      ],
      "payable": false,
      "stateMutability": "view",
      "type": "function"
    },
    {
      "constant": true,
      "inputs": [
        {
          "internalType": "address",
          "name": "_id",
          "type": "address"
        }
      ],
      "name": "isRegistered",
      "outputs": [
        {
          "internalType": "bool",
          "name": "",
          "type": "bool"
        }
      ],
      "payable": false,
      "stateMutability": "view",
      "type": "function"
    }
  ],
  "bytecode": "0x608060405234801561001057600080fd5b5061117f806100206000396000f3fe608060405234801561001057600080fd5b50600436106100ea5760003560e01c8063566887001161008c578063c3c5a54711610066578063c3c5a547146103f0578063c8c0526e1461044c578063e0b1cccb146104a4578063f8b2cb4f146104f2576100ea565b806356688700146102d7578063a201ccf614610339578063af0825af146103a2576100ea565b806328138ad6116100c857806328138ad6146101a457806330ccebb5146101f25780633c0b79d91461024a5780635073619014610293576100ea565b80630902f1ac146100ef57806312a896cf1461011457806321e5383a14610156575b600080fd5b6100f761054a565b604051808381526020018281526020019250505060405180910390f35b6101406004803603602081101561012a57600080fd5b810190808035906020019092919050505061055b565b6040518082815260200191505060405180910390f35b6101a26004803603604081101561016c57600080fd5b81019080803573ffffffffffffffffffffffffffffffffffffffff1690602001909291908035906020019092919050505061058a565b005b6101f0600480360360408110156101ba57600080fd5b81019080803573ffffffffffffffffffffffffffffffffffffffff169060200190929190803590602001909291905050506105dd565b005b6102346004803603602081101561020857600080fd5b81019080803573ffffffffffffffffffffffffffffffffffffffff169060200190929190505050610630565b6040518082815260200191505060405180910390f35b6102766004803603602081101561026057600080fd5b810190808035906020019092919050505061067b565b604051808381526020018281526020019250505060405180910390f35b6102d5600480360360208110156102a957600080fd5b81019080803573ffffffffffffffffffffffffffffffffffffffff16906020019092919050505061071b565b005b610323600480360360408110156102ed57600080fd5b81019080803573ffffffffffffffffffffffffffffffffffffffff1690602001909291908035906020019092919050505061079e565b6040518082815260200191505060405180910390f35b6103856004803603604081101561034f57600080fd5b81019080803573ffffffffffffffffffffffffffffffffffffffff16906020019092919080359060200190929190505050610916565b604051808381526020018281526020019250505060405180910390f35b6103ee600480360360408110156103b857600080fd5b81019080803573ffffffffffffffffffffffffffffffffffffffff16906020019092919080359060200190929190505050610ad5565b005b6104326004803603602081101561040657600080fd5b81019080803573ffffffffffffffffffffffffffffffffffffffff169060200190929190505050610b28565b604051808215151515815260200191505060405180910390f35b61048e6004803603602081101561046257600080fd5b81019080803573ffffffffffffffffffffffffffffffffffffffff169060200190929190505050610bc1565b6040518082815260200191505060405180910390f35b6104f0600480360360408110156104ba57600080fd5b81019080803573ffffffffffffffffffffffffffffffffffffffff16906020019092919080359060200190929190505050610c0c565b005b6105346004803603602081101561050857600080fd5b81019080803573ffffffffffffffffffffffffffffffffffffffff169060200190929190505050610c56565b6040518082815260200191505060405180910390f35b600080600154905060025491509091565b600080826002540383600154028161056f57fe5b0490506103e66103e882028161058157fe5b04915050919050565b806000808473ffffffffffffffffffffffffffffffffffffffff1673ffffffffffffffffffffffffffffffffffffffff168152602001908152602001600020600201600082825401925050819055505050565b806000808473ffffffffffffffffffffffffffffffffffffffff1673ffffffffffffffffffffffffffffffffffffffff1681526020019081526020016000206001018190555061062c82610ca1565b5050565b60008060008373ffffffffffffffffffffffffffffffffffffffff1673ffffffffffffffffffffffffffffffffffffffff168152602001908152602001600020600101549050919050565b6000806003548311156106d9576040517f08c379a00000000000000000000000000000000000000000000000000000000081526004018080602001828103825260228152602001806110d76022913960400191505060405180910390fd5b6000600354111561070d576003546002548402816106f357fe5b04915060035460015484028161070557fe5b049050610716565b60009150600090505b915091565b806000808373ffffffffffffffffffffffffffffffffffffffff1673ffffffffffffffffffffffffffffffffffffffff16815260200190815260200160002060000160006101000a81548173ffffffffffffffffffffffffffffffffffffffff021916908373ffffffffffffffffffffffffffffffffffffffff16021790555050565b600080600060015411156107c3576001546002548402816107bb57fe5b0490506107c7565b8290505b806000808673ffffffffffffffffffffffffffffffffffffffff1673ffffffffffffffffffffffffffffffffffffffff16815260200190815260200160002060020154101561087e576040517f08c379a000000000000000000000000000000000000000000000000000000000815260040180806020018281038252601c8152602001807f496e73756666696369656e74206163636f756e742062616c616e63650000000081525060200191505060405180910390fd5b806000808673ffffffffffffffffffffffffffffffffffffffff1673ffffffffffffffffffffffffffffffffffffffff16815260200190815260200160002060020160008282540392505081905550600060035414156108e0578291506108f3565b6002546003548402816108ef57fe5b0491505b6108fd8483610e30565b61090f83600254018260015401610e93565b5092915050565b600080826000808673ffffffffffffffffffffffffffffffffffffffff1673ffffffffffffffffffffffffffffffffffffffff1681526020019081526020016000206003015410156109d0576040517f08c379a000000000000000000000000000000000000000000000000000000000815260040180806020018281038252601d8152602001807f496e73756666696369656e74206c69717569646974792073686172657300000081525060200191505060405180910390fd5b6109d98361067b565b80925081935050506000821180156109f15750600081115b610a63576040517f08c379a000000000000000000000000000000000000000000000000000000000815260040180806020018281038252601d8152602001807f496e73756666696369656e74207472616e7366657220616d6f756e747300000081525060200191505060405180910390fd5b806000808673ffffffffffffffffffffffffffffffffffffffff1673ffffffffffffffffffffffffffffffffffffffff16815260200190815260200160002060020160008282540192505081905550610abc8484610ea5565b610ace82600254038260015403610e93565b9250929050565b806000808473ffffffffffffffffffffffffffffffffffffffff1673ffffffffffffffffffffffffffffffffffffffff168152602001908152602001600020600201600082825403925050819055505050565b60008173ffffffffffffffffffffffffffffffffffffffff166000808473ffffffffffffffffffffffffffffffffffffffff1673ffffffffffffffffffffffffffffffffffffffff16815260200190815260200160002060000160009054906101000a900473ffffffffffffffffffffffffffffffffffffffff1673ffffffffffffffffffffffffffffffffffffffff16149050919050565b60008060008373ffffffffffffffffffffffffffffffffffffffff1673ffffffffffffffffffffffffffffffffffffffff168152602001908152602001600020600301549050919050565b806000808473ffffffffffffffffffffffffffffffffffffffff1673ffffffffffffffffffffffffffffffffffffffff168152602001908152602001600020600201819055505050565b60008060008373ffffffffffffffffffffffffffffffffffffffff1673ffffffffffffffffffffffffffffffffffffffff168152602001908152602001600020600201549050919050565b600080905060008060008473ffffffffffffffffffffffffffffffffffffffff1673ffffffffffffffffffffffffffffffffffffffff168152602001908152602001600020600101541315610d4257610d3b826000808573ffffffffffffffffffffffffffffffffffffffff1673ffffffffffffffffffffffffffffffffffffffff16815260200190815260200160002060010154610f08565b9050610dde565b60008060008473ffffffffffffffffffffffffffffffffffffffff1673ffffffffffffffffffffffffffffffffffffffff168152602001908152602001600020600101541215610ddd57610dda826000808573ffffffffffffffffffffffffffffffffffffffff1673ffffffffffffffffffffffffffffffffffffffff16815260200190815260200160002060010154600003610ffe565b90505b5b8015610e2c5760008060008473ffffffffffffffffffffffffffffffffffffffff1673ffffffffffffffffffffffffffffffffffffffff168152602001908152602001600020600101819055505b5050565b806000808473ffffffffffffffffffffffffffffffffffffffff1673ffffffffffffffffffffffffffffffffffffffff16815260200190815260200160002060030160008282540192505081905550806003600082825401925050819055505050565b80600181905550816002819055505050565b806000808473ffffffffffffffffffffffffffffffffffffffff1673ffffffffffffffffffffffffffffffffffffffff16815260200190815260200160002060030160008282540392505081905550806003600082825403925050819055505050565b600080905060006103e86103e6840281610f1e57fe5b04905060008160025401826001540281610f3457fe5b0490506001548110610f91576040517f08c379a00000000000000000000000000000000000000000000000000000000081526004018080602001828103825260298152602001806111226029913960400191505060405180910390fd5b806000808773ffffffffffffffffffffffffffffffffffffffff1673ffffffffffffffffffffffffffffffffffffffff16815260200190815260200160002060020160008282540192505081905550610ff284600254018260015403610e93565b60019250505092915050565b6000809050600254821061105d576040517f08c379a00000000000000000000000000000000000000000000000000000000081526004018080602001828103825260298152602001806110f96029913960400191505060405180910390fd5b60006110688361055b565b9050806000808673ffffffffffffffffffffffffffffffffffffffff1673ffffffffffffffffffffffffffffffffffffffff168152602001908152602001600020600201600082825403925050819055506110cb83600254038260015401610e93565b60019150509291505056fe496e76616c6964206e756d626572206f66206c697175696469747920736861726573496e73756666696369656e7420656e6572677920696e206c6971756964697479207265736572766573496e73756666696369656e742065746865727320696e206c6971756964697479207265736572766573a265627a7a7231582019ef409ab2a6b050bbbf9259b9421f75e8bc3d5225e1f51e31f3224919ecdba264736f6c63430005100032",
  "source": "pragma solidity >= 0.4.0 < 0.8.0;\r\n\r\ncontract P2PCI {\r\n    struct Prosumer {\r\n        address id;\r\n        int256 status;\r\n        uint256 balance;\r\n        uint256 liquidityShares;\r\n    }\r\n\r\n    mapping (address => Prosumer) private prosumers;\r\n    // Liquidity pool variables, keeping a 50:50 value split\r\n    uint256 ethersReserve;\r\n    uint256 energyReserve;\r\n    uint256 totalLiquidity;\r\n\r\n    // Mints liquidity shares for a particular prosumer\r\n    function mint(address _id, uint256 _amount) private {\r\n        prosumers[_id].liquidityShares += _amount;\r\n        totalLiquidity += _amount;\r\n    }\r\n\r\n    // Burns liquidity shares for a particular prosumer\r\n    function burn(address _id, uint256 _amount) private {\r\n        prosumers[_id].liquidityShares -= _amount;\r\n        totalLiquidity -= _amount;\r\n    }\r\n\r\n    function updateReserves(uint256 _energy, uint256 _ethers) private {\r\n        ethersReserve = _ethers;\r\n        energyReserve = _energy;\r\n    }\r\n\r\n    function getReserves() public view returns \r\n    (uint256 _energy, uint256 _ethers) {\r\n        _ethers = ethersReserve;\r\n        _energy = energyReserve;\r\n    }\r\n\r\n    /* Calculates the cost in ethers to trade for a certain amount \r\n    of energy, returns the ether cost.\r\n    Using x * y = k, where x is the ether reserves and y is the \r\n    energy reserves and k is a constant.\r\n    > (x + dx) * (y - dy) = k, rearrange to dx = (x * dy) / (y - dy) */\r\n    function costToBuyEnergy(uint256 _energyAmount) public view \r\n    returns (uint256 _ethersAmountWithFee) {\r\n        uint256 _ethersAmount = ((ethersReserve * _energyAmount) \r\n                                / (energyReserve - _energyAmount));        \r\n        _ethersAmountWithFee = (_ethersAmount * 1000) / 998;\r\n    }\r\n\r\n    // Buy energy by trading ethers for energy in the liquidity pool\r\n    function buyEnergy(address _from, uint256 _energyAmount) private \r\n    returns (bool _success) {\r\n        _success = false;\r\n        require(_energyAmount < energyReserve, \r\n                \"Insufficient energy in liquidity reserves\");\r\n\r\n        uint256 _ethersAmountWithFee = costToBuyEnergy(_energyAmount);\r\n\r\n        prosumers[_from].balance -= _ethersAmountWithFee;\r\n\r\n        updateReserves(energyReserve - _energyAmount, \r\n                    ethersReserve + _ethersAmountWithFee);\r\n\r\n        _success = true;\r\n    }\r\n\r\n    // Sell energy by trading energy for ethers in the liquidity pool\r\n    function sellEnergy(address _from, uint256 _energyAmount) \r\n    private returns (bool _success) { \r\n        _success = false;\r\n\r\n        // Using x * y = k, where x is the ether reserves and \r\n        // y is the energy reserves and k is a constant.\r\n        // > (x - dx) * (y + dy) = k, \r\n        // rearrange to -dx = (x * dy) / (y + dy)\r\n        uint256 _energyAmountWithFee = (_energyAmount * 998) / 1000;\r\n        uint256 _ethersAmount = ((ethersReserve * _energyAmountWithFee) / \r\n                                (energyReserve + _energyAmountWithFee));\r\n\r\n        require(_ethersAmount < ethersReserve, \r\n                \"Insufficient ethers in liquidity reserves\");\r\n        prosumers[_from].balance += _ethersAmount;\r\n\r\n        updateReserves(energyReserve + _energyAmount, \r\n                    ethersReserve - _ethersAmount);\r\n\r\n        _success = true;\r\n    }\r\n\r\n    /* Add an amount of energy to the liquidity pool, also\r\n    add a corresponing amount of ethers in order to keep \r\n    the value of energy in the pool the same */\r\n    function addLiquidity(address _from, uint256 _energyAmount) public \r\n    returns (uint256 _newLiquidityShares) {\r\n        // If the liquidity pool is empty, then let the energy \r\n        // and ethers have the same value (50:50)\r\n        uint256 _ethersAmount;\r\n        if (ethersReserve > 0) {\r\n            _ethersAmount = (_energyAmount * energyReserve) / ethersReserve;\r\n        } else {\r\n            _ethersAmount = _energyAmount;\r\n        }\r\n\r\n        require(prosumers[_from].balance >= _ethersAmount, \r\n                \"Insufficient account balance\");\r\n        prosumers[_from].balance -= _ethersAmount;\r\n\r\n        /* Calculate the number of liquidity shares to mint via\r\n        the geometric mean as a measure of liquidity.\r\n        > S = (dx / x) * TL\r\n        > S = (dy / y) * TL \r\n        In this case both equations give the same value as inputs\r\n        are balanced so just use one.\r\n        If the liquidity pool is empty then shares are equal \r\n        to the amount added as the value of energy and ethers \r\n        should be equal, would otherwise be sqrt(x * y) */\r\n        if (totalLiquidity == 0) {\r\n            _newLiquidityShares = _energyAmount;\r\n        } else {\r\n            _newLiquidityShares = ((_energyAmount * totalLiquidity) \r\n                                    / energyReserve);\r\n        }\r\n\r\n        mint(_from, _newLiquidityShares);\r\n\r\n        updateReserves(energyReserve + _energyAmount, \r\n                    ethersReserve + _ethersAmount);\r\n    }\r\n\r\n    /* Get the value of ethers and energy that burning an\r\n     amount of liquidity shares will provide */\r\n    function getLiquidityWorth(uint256 _liquidityShares) public view \r\n    returns (uint256 _energyAmount, uint256 _ethersAmount) {\r\n        require(_liquidityShares <= totalLiquidity, \r\n                \"Invalid number of liquidity shares\");\r\n\r\n        /* Function for user to remove liquidity\r\n        > dx = (S / TL) * x\r\n        > dy = (S / TL) * y \r\n        If there is no liquidity then energy amounts are 0 \r\n        (not strictly necessary because of above requirement) */\r\n        if (totalLiquidity > 0) {\r\n            _energyAmount = ((_liquidityShares * energyReserve) \r\n                                / totalLiquidity);\r\n            _ethersAmount = ((_liquidityShares * ethersReserve) \r\n                                / totalLiquidity);\r\n        } else {\r\n            _energyAmount = 0;\r\n            _ethersAmount = 0;\r\n        }\r\n    }\r\n\r\n    /* Remove energy and ethers from liquidity pool based \r\n    on the number of liquidty shares provided */\r\n    function removeLiquidity(address _to, uint256 _liquidityShares) public \r\n    returns (uint256 _energyAmount, uint256 _ethersAmount) {\r\n        require(prosumers[_to].liquidityShares >= _liquidityShares, \r\n                \"Insufficient liquidity shares\");\r\n\r\n        (_energyAmount, _ethersAmount) = getLiquidityWorth(_liquidityShares);\r\n\r\n        require(_energyAmount > 0 && _ethersAmount > 0, \r\n                \"Insufficient transfer amounts\");\r\n        prosumers[_to].balance += _ethersAmount;\r\n\r\n        burn(_to, _liquidityShares);\r\n\r\n        updateReserves(energyReserve - _energyAmount, \r\n                    ethersReserve - _ethersAmount);\r\n    }\r\n\r\n    // Process a change of status (requesting either to buy \r\n    // or sell energy depending on sign)\r\n    function processRequest(address _id) private {\r\n        bool _success = false;\r\n\r\n        // Posisitive status = sell request, negative = buy request\r\n        if (prosumers[_id].status > 0) {\r\n            _success = sellEnergy(_id, uint256(prosumers[_id].status));\r\n        } else if (prosumers[_id].status < 0) {\r\n            _success = buyEnergy(_id, uint256(0 - prosumers[_id].status));\r\n        }\r\n\r\n        if (_success) {\r\n            prosumers[_id].status = 0;\r\n        }\r\n    }\r\n\r\n    function addProsumer(address _id) public {\r\n        prosumers[_id].id = _id;\r\n    }\r\n\r\n    function updateStatus(address _id, int _amount) public {\r\n        prosumers[_id].status = _amount;\r\n        \r\n        processRequest(_id);\r\n    }\r\n\r\n    function updateBalance(address _id, uint256 _amount) public {\r\n        prosumers[_id].balance = _amount;\r\n    }\r\n\r\n    function addBalance(address _id, uint256 _amount) public {\r\n        prosumers[_id].balance += _amount;\r\n    }\r\n\r\n    function removeBalance(address _id, uint256 _amount) public {\r\n        prosumers[_id].balance -= _amount;\r\n    }\r\n\r\n    function getStatus(address _id) public view returns(int256) {\r\n        return prosumers[_id].status;\r\n    }\r\n\r\n    function getBalance(address _id) public view returns(uint256) {\r\n        return prosumers[_id].balance;\r\n    }\r\n\r\n    function getLiquidityShares(address _id) public view returns(uint256) {\r\n        return prosumers[_id].liquidityShares;\r\n    }\r\n\r\n    // Prosumer is only registered if id element matches their id\r\n    function isRegistered(address _id) public view returns(bool) {\r\n        return prosumers[_id].id == _id;\r\n    }\r\n}\r\n\r\n\r\ncontract MainCI {\r\n    P2PCI p2p;\r\n\r\n    constructor (P2PCI _p2p) public {\r\n        p2p = _p2p;\r\n    }\r\n    \r\n    modifier checkRegistered() {\r\n        require(p2p.isRegistered(msg.sender) == true, \"Not registered\");\r\n        _;\r\n    }\r\n\r\n    modifier checkNotRegistered() {\r\n        require(p2p.isRegistered(msg.sender) == false, \"Already registered\");\r\n        _;\r\n    }\r\n\r\n    // Make sure a prosumer has enough ethers in their account if buying energy\r\n    modifier checkSufficientFunds(int256 _energy) {\r\n        if (_energy < 0) {\r\n            require(p2p.getBalance(msg.sender) >= \r\n                    p2p.costToBuyEnergy(uint256(0 - _energy)),\r\n                     \"Insufficient account balance\");\r\n        }\r\n        _;\r\n    }\r\n\r\n    modifier checkPositiveStatus() {\r\n        require(p2p.getStatus(msg.sender) >= 0, \"Withdrawal requires status >= 0\");\r\n        _;\r\n    }\r\n\r\n    modifier checkLiquidityShares(uint256 _shares) {\r\n        require(p2p.getLiquidityShares(msg.sender) >= _shares, \r\n                \"Insufficient liquidity shares balance\");\r\n        _;\r\n    }\r\n\r\n    modifier checkEnergyAmount(int256 _energy) {\r\n        // Still allow status inputs of 0\r\n        if (_energy != 0) {\r\n            require(_energy >= (1 ether / 10), \r\n                \"Energy inputs must be >= 1 energy unit, where\"\r\n                \"1 energy unit = 1,000,000,000,000,000,000\");\r\n        }\r\n        _;\r\n    }\r\n\r\n    function register() public checkNotRegistered {\r\n        p2p.addProsumer(msg.sender);\r\n    }\r\n\r\n    function deposit() public payable checkRegistered {\r\n        p2p.addBalance(msg.sender, msg.value);\r\n    }\r\n\r\n    function withdraw() public checkRegistered checkPositiveStatus {\r\n        uint256 _balance = p2p.getBalance(msg.sender);\r\n        msg.sender.transfer(_balance);\r\n        p2p.updateBalance(msg.sender, 0);\r\n    }\r\n\r\n    function requestEnergy(int256 _energy) public checkRegistered \r\n    checkSufficientFunds(_energy) checkEnergyAmount(_energy) {\r\n        p2p.updateStatus(msg.sender, _energy);\r\n    }\r\n\r\n    function getStatus() public view checkRegistered returns(int256) {\r\n        return p2p.getStatus(msg.sender);\r\n    }\r\n\r\n    function getBalance() public view checkRegistered returns(uint256) {\r\n        return p2p.getBalance(msg.sender);\r\n    }\r\n\r\n    function getLiquidityShares() public view checkRegistered \r\n    returns(uint256, uint256, uint256) {\r\n        uint256 _shares = p2p.getLiquidityShares(msg.sender);\r\n        (uint256 _energyVal, uint256 _ethersVal) = p2p.getLiquidityWorth(_shares);\r\n        return (_shares, _energyVal, _ethersVal);\r\n    }\r\n\r\n    function depositLiquidity(uint256 _energy) public checkRegistered \r\n    checkEnergyAmount(int256(_energy)) returns(uint256) {\r\n        return p2p.addLiquidity(msg.sender, _energy);\r\n    }\r\n\r\n    function withdrawLiquidity(uint256 _shares) public checkRegistered \r\n    checkLiquidityShares(_shares) returns(uint256, uint256) {\r\n        return p2p.removeLiquidity(msg.sender, _shares);\r\n    }\r\n\r\n    function getPool() public view checkRegistered returns(uint256, uint256) {\r\n        return p2p.getReserves();\r\n    }\r\n\r\n    function getEnergyPrice(uint256 _energy) public view checkRegistered \r\n    checkEnergyAmount(int256(_energy)) returns(uint256) {\r\n        return p2p.costToBuyEnergy(_energy);\r\n    }\r\n\r\n    function getEnergyPrice() public view checkRegistered returns(uint256) {\r\n        return p2p.costToBuyEnergy(1 ether);\r\n    }\r\n}",
  "sourcePath": "C:\\Users\\Lenovo\\Documents\\University_Work\\year_4\\BT\\cwk\\contracts\\energyTradingIncentive.sol",
  "compiler": {
    "name": "solc",
    "version": "0.5.16+commit.9c3226ce.Emscripten.clang"
  },
  "schemaVersion": "3.4.13",
  "updatedAt": "2023-05-02T18:24:59.366Z",
  "networkType": "ethereum",
  "devdoc": {
    "methods": {}
  },
  "userdoc": {
    "methods": {}
  }
}