{
  "contractName": "TransferEthers",
  "abi": [
    {
      "constant": false,
      "inputs": [],
      "name": "invest",
      "outputs": [],
      "payable": true,
      "stateMutability": "payable",
      "type": "function"
    },
    {
      "constant": true,
      "inputs": [],
      "name": "balanceOf",
      "outputs": [
        {
          "internalType": "uint256",
          "name": "",
          "type": "uint256"
        }
      ],
      "payable": false,
      "stateMutability": "view",
      "type": "function"
    },
    {
      "constant": false,
      "inputs": [
        {
          "internalType": "address payable",
          "name": "recepient",
          "type": "address"
        }
      ],
      "name": "sendEther",
      "outputs": [],
      "payable": false,
      "stateMutability": "nonpayable",
      "type": "function"
    }
  ],
  "bytecode": "0x608060405234801561001057600080fd5b50610150806100206000396000f3fe6080604052600436106100345760003560e01c806348c981e214610039578063722713f71461008a578063e8b5e51f146100b5575b600080fd5b34801561004557600080fd5b506100886004803603602081101561005c57600080fd5b81019080803573ffffffffffffffffffffffffffffffffffffffff1690602001909291905050506100bf565b005b34801561009657600080fd5b5061009f610111565b6040518082815260200191505060405180910390f35b6100bd610119565b005b8073ffffffffffffffffffffffffffffffffffffffff166108fc6729a2241af62c00009081150290604051600060405180830381858888f1935050505015801561010d573d6000803e3d6000fd5b5050565b600047905090565b56fea265627a7a7231582029d8a57419542bef4d3a1a7d5c09c0690ef508cf454647574773acf46ddffb9b64736f6c63430005100032",
  "source": "pragma solidity >= 0.4.0 < 0.8.0;\r\n\r\ncontract SimpleStorage {\r\n    uint storedData;\r\n    function set(uint x) public {\r\n        storedData = x;\r\n    }\r\n    function get() public view returns (uint) {\r\n        return storedData;\r\n    }\r\n}\r\n\r\n\r\ncontract TransferEthers {\r\n    function invest() external payable {\r\n    }\r\n\r\n    function balanceOf() external view returns(uint) {\r\n        return address(this).balance;\r\n    }\r\n\r\n    function sendEther(address payable recepient) external {\r\n        recepient.transfer(3 ether);\r\n    }\r\n}",
  "sourcePath": "C:\\Users\\Lenovo\\Documents\\University_Work\\year_4\\BT\\cwk\\contracts\\simpleStorage.sol",
  "compiler": {
    "name": "solc",
    "version": "0.5.16+commit.9c3226ce.Emscripten.clang"
  },
  "schemaVersion": "3.4.13",
  "updatedAt": "2023-05-02T18:24:57.183Z",
  "networkType": "ethereum",
  "devdoc": {
    "methods": {}
  },
  "userdoc": {
    "methods": {}
  }
}